{
    "_format": "hh-sol-artifact-1",
    "contractName": "AVAXGods",
    "sourceName": "contracts/AvaxGods.sol",
    "abi": [
        {
            "inputs": [
                {
                    "internalType": "string",
                    "name": "_metadataURI",
                    "type": "string"
                }
            ],
            "stateMutability": "nonpayable",
            "type": "constructor"
        },
        {
            "anonymous": false,
            "inputs": [
                {
                    "indexed": true,
                    "internalType": "address",
                    "name": "account",
                    "type": "address"
                },
                {
                    "indexed": true,
                    "internalType": "address",
                    "name": "operator",
                    "type": "address"
                },
                {
                    "indexed": false,
                    "internalType": "bool",
                    "name": "approved",
                    "type": "bool"
                }
            ],
            "name": "ApprovalForAll",
            "type": "event"
        },
        {
            "anonymous": false,
            "inputs": [
                {
                    "indexed": false,
                    "internalType": "string",
                    "name": "battleName",
                    "type": "string"
                },
                {
                    "indexed": true,
                    "internalType": "address",
                    "name": "winner",
                    "type": "address"
                },
                {
                    "indexed": true,
                    "internalType": "address",
                    "name": "loser",
                    "type": "address"
                }
            ],
            "name": "BattleEnded",
            "type": "event"
        },
        {
            "anonymous": false,
            "inputs": [
                {
                    "indexed": true,
                    "internalType": "string",
                    "name": "battleName",
                    "type": "string"
                },
                {
                    "indexed": true,
                    "internalType": "bool",
                    "name": "isFirstMove",
                    "type": "bool"
                }
            ],
            "name": "BattleMove",
            "type": "event"
        },
        {
            "anonymous": false,
            "inputs": [
                {
                    "indexed": false,
                    "internalType": "string",
                    "name": "battleName",
                    "type": "string"
                },
                {
                    "indexed": true,
                    "internalType": "address",
                    "name": "player1",
                    "type": "address"
                },
                {
                    "indexed": true,
                    "internalType": "address",
                    "name": "player2",
                    "type": "address"
                }
            ],
            "name": "NewBattle",
            "type": "event"
        },
        {
            "anonymous": false,
            "inputs": [
                {
                    "indexed": true,
                    "internalType": "address",
                    "name": "owner",
                    "type": "address"
                },
                {
                    "indexed": false,
                    "internalType": "uint256",
                    "name": "id",
                    "type": "uint256"
                },
                {
                    "indexed": false,
                    "internalType": "uint256",
                    "name": "attackStrength",
                    "type": "uint256"
                },
                {
                    "indexed": false,
                    "internalType": "uint256",
                    "name": "defenseStrength",
                    "type": "uint256"
                }
            ],
            "name": "NewGameToken",
            "type": "event"
        },
        {
            "anonymous": false,
            "inputs": [
                {
                    "indexed": true,
                    "internalType": "address",
                    "name": "owner",
                    "type": "address"
                },
                {
                    "indexed": false,
                    "internalType": "string",
                    "name": "name",
                    "type": "string"
                }
            ],
            "name": "NewPlayer",
            "type": "event"
        },
        {
            "anonymous": false,
            "inputs": [
                {
                    "indexed": true,
                    "internalType": "address",
                    "name": "previousOwner",
                    "type": "address"
                },
                {
                    "indexed": true,
                    "internalType": "address",
                    "name": "newOwner",
                    "type": "address"
                }
            ],
            "name": "OwnershipTransferred",
            "type": "event"
        },
        {
            "anonymous": false,
            "inputs": [
                {
                    "indexed": false,
                    "internalType": "address[2]",
                    "name": "damagedPlayers",
                    "type": "address[2]"
                }
            ],
            "name": "RoundEnded",
            "type": "event"
        },
        {
            "anonymous": false,
            "inputs": [
                {
                    "indexed": true,
                    "internalType": "address",
                    "name": "operator",
                    "type": "address"
                },
                {
                    "indexed": true,
                    "internalType": "address",
                    "name": "from",
                    "type": "address"
                },
                {
                    "indexed": true,
                    "internalType": "address",
                    "name": "to",
                    "type": "address"
                },
                {
                    "indexed": false,
                    "internalType": "uint256[]",
                    "name": "ids",
                    "type": "uint256[]"
                },
                {
                    "indexed": false,
                    "internalType": "uint256[]",
                    "name": "values",
                    "type": "uint256[]"
                }
            ],
            "name": "TransferBatch",
            "type": "event"
        },
        {
            "anonymous": false,
            "inputs": [
                {
                    "indexed": true,
                    "internalType": "address",
                    "name": "operator",
                    "type": "address"
                },
                {
                    "indexed": true,
                    "internalType": "address",
                    "name": "from",
                    "type": "address"
                },
                {
                    "indexed": true,
                    "internalType": "address",
                    "name": "to",
                    "type": "address"
                },
                {
                    "indexed": false,
                    "internalType": "uint256",
                    "name": "id",
                    "type": "uint256"
                },
                {
                    "indexed": false,
                    "internalType": "uint256",
                    "name": "value",
                    "type": "uint256"
                }
            ],
            "name": "TransferSingle",
            "type": "event"
        },
        {
            "anonymous": false,
            "inputs": [
                {
                    "indexed": false,
                    "internalType": "string",
                    "name": "value",
                    "type": "string"
                },
                {
                    "indexed": true,
                    "internalType": "uint256",
                    "name": "id",
                    "type": "uint256"
                }
            ],
            "name": "URI",
            "type": "event"
        },
        {
            "inputs": [],
            "name": "CELESTION",
            "outputs": [
                {
                    "internalType": "uint256",
                    "name": "",
                    "type": "uint256"
                }
            ],
            "stateMutability": "view",
            "type": "function"
        },
        {
            "inputs": [],
            "name": "DEVIL",
            "outputs": [
                {
                    "internalType": "uint256",
                    "name": "",
                    "type": "uint256"
                }
            ],
            "stateMutability": "view",
            "type": "function"
        },
        {
            "inputs": [],
            "name": "FIREBIRD",
            "outputs": [
                {
                    "internalType": "uint256",
                    "name": "",
                    "type": "uint256"
                }
            ],
            "stateMutability": "view",
            "type": "function"
        },
        {
            "inputs": [],
            "name": "GRIFFIN",
            "outputs": [
                {
                    "internalType": "uint256",
                    "name": "",
                    "type": "uint256"
                }
            ],
            "stateMutability": "view",
            "type": "function"
        },
        {
            "inputs": [],
            "name": "KAMO",
            "outputs": [
                {
                    "internalType": "uint256",
                    "name": "",
                    "type": "uint256"
                }
            ],
            "stateMutability": "view",
            "type": "function"
        },
        {
            "inputs": [],
            "name": "KUKULKAN",
            "outputs": [
                {
                    "internalType": "uint256",
                    "name": "",
                    "type": "uint256"
                }
            ],
            "stateMutability": "view",
            "type": "function"
        },
        {
            "inputs": [],
            "name": "MAX_ATTACK_DEFEND_STRENGTH",
            "outputs": [
                {
                    "internalType": "uint256",
                    "name": "",
                    "type": "uint256"
                }
            ],
            "stateMutability": "view",
            "type": "function"
        },
        {
            "inputs": [
                {
                    "internalType": "uint8",
                    "name": "_choice",
                    "type": "uint8"
                },
                {
                    "internalType": "string",
                    "name": "_battleName",
                    "type": "string"
                }
            ],
            "name": "attackOrDefendChoice",
            "outputs": [],
            "stateMutability": "nonpayable",
            "type": "function"
        },
        {
            "inputs": [
                {
                    "internalType": "address",
                    "name": "account",
                    "type": "address"
                },
                {
                    "internalType": "uint256",
                    "name": "id",
                    "type": "uint256"
                }
            ],
            "name": "balanceOf",
            "outputs": [
                {
                    "internalType": "uint256",
                    "name": "",
                    "type": "uint256"
                }
            ],
            "stateMutability": "view",
            "type": "function"
        },
        {
            "inputs": [
                {
                    "internalType": "address[]",
                    "name": "accounts",
                    "type": "address[]"
                },
                {
                    "internalType": "uint256[]",
                    "name": "ids",
                    "type": "uint256[]"
                }
            ],
            "name": "balanceOfBatch",
            "outputs": [
                {
                    "internalType": "uint256[]",
                    "name": "",
                    "type": "uint256[]"
                }
            ],
            "stateMutability": "view",
            "type": "function"
        },
        {
            "inputs": [],
            "name": "baseURI",
            "outputs": [
                {
                    "internalType": "string",
                    "name": "",
                    "type": "string"
                }
            ],
            "stateMutability": "view",
            "type": "function"
        },
        {
            "inputs": [
                {
                    "internalType": "string",
                    "name": "",
                    "type": "string"
                }
            ],
            "name": "battleInfo",
            "outputs": [
                {
                    "internalType": "uint256",
                    "name": "",
                    "type": "uint256"
                }
            ],
            "stateMutability": "view",
            "type": "function"
        },
        {
            "inputs": [
                {
                    "internalType": "uint256",
                    "name": "",
                    "type": "uint256"
                }
            ],
            "name": "battles",
            "outputs": [
                {
                    "internalType": "enum AVAXGods.BattleStatus",
                    "name": "battleStatus",
                    "type": "uint8"
                },
                {
                    "internalType": "bytes32",
                    "name": "battleHash",
                    "type": "bytes32"
                },
                {
                    "internalType": "string",
                    "name": "name",
                    "type": "string"
                },
                {
                    "internalType": "address",
                    "name": "winner",
                    "type": "address"
                }
            ],
            "stateMutability": "view",
            "type": "function"
        },
        {
            "inputs": [
                {
                    "internalType": "string",
                    "name": "_name",
                    "type": "string"
                }
            ],
            "name": "createBattle",
            "outputs": [
                {
                    "components": [
                        {
                            "internalType": "enum AVAXGods.BattleStatus",
                            "name": "battleStatus",
                            "type": "uint8"
                        },
                        {
                            "internalType": "bytes32",
                            "name": "battleHash",
                            "type": "bytes32"
                        },
                        {
                            "internalType": "string",
                            "name": "name",
                            "type": "string"
                        },
                        {
                            "internalType": "address[2]",
                            "name": "players",
                            "type": "address[2]"
                        },
                        {
                            "internalType": "uint8[2]",
                            "name": "moves",
                            "type": "uint8[2]"
                        },
                        {
                            "internalType": "address",
                            "name": "winner",
                            "type": "address"
                        }
                    ],
                    "internalType": "struct AVAXGods.Battle",
                    "name": "",
                    "type": "tuple"
                }
            ],
            "stateMutability": "nonpayable",
            "type": "function"
        },
        {
            "inputs": [
                {
                    "internalType": "string",
                    "name": "_name",
                    "type": "string"
                }
            ],
            "name": "createRandomGameToken",
            "outputs": [],
            "stateMutability": "nonpayable",
            "type": "function"
        },
        {
            "inputs": [
                {
                    "internalType": "uint256",
                    "name": "id",
                    "type": "uint256"
                }
            ],
            "name": "exists",
            "outputs": [
                {
                    "internalType": "bool",
                    "name": "",
                    "type": "bool"
                }
            ],
            "stateMutability": "view",
            "type": "function"
        },
        {
            "inputs": [
                {
                    "internalType": "uint256",
                    "name": "",
                    "type": "uint256"
                }
            ],
            "name": "gameTokens",
            "outputs": [
                {
                    "internalType": "string",
                    "name": "name",
                    "type": "string"
                },
                {
                    "internalType": "uint256",
                    "name": "id",
                    "type": "uint256"
                },
                {
                    "internalType": "uint256",
                    "name": "attackStrength",
                    "type": "uint256"
                },
                {
                    "internalType": "uint256",
                    "name": "defenseStrength",
                    "type": "uint256"
                }
            ],
            "stateMutability": "view",
            "type": "function"
        },
        {
            "inputs": [],
            "name": "getAllBattles",
            "outputs": [
                {
                    "components": [
                        {
                            "internalType": "enum AVAXGods.BattleStatus",
                            "name": "battleStatus",
                            "type": "uint8"
                        },
                        {
                            "internalType": "bytes32",
                            "name": "battleHash",
                            "type": "bytes32"
                        },
                        {
                            "internalType": "string",
                            "name": "name",
                            "type": "string"
                        },
                        {
                            "internalType": "address[2]",
                            "name": "players",
                            "type": "address[2]"
                        },
                        {
                            "internalType": "uint8[2]",
                            "name": "moves",
                            "type": "uint8[2]"
                        },
                        {
                            "internalType": "address",
                            "name": "winner",
                            "type": "address"
                        }
                    ],
                    "internalType": "struct AVAXGods.Battle[]",
                    "name": "",
                    "type": "tuple[]"
                }
            ],
            "stateMutability": "view",
            "type": "function"
        },
        {
            "inputs": [],
            "name": "getAllPlayerTokens",
            "outputs": [
                {
                    "components": [
                        {
                            "internalType": "string",
                            "name": "name",
                            "type": "string"
                        },
                        {
                            "internalType": "uint256",
                            "name": "id",
                            "type": "uint256"
                        },
                        {
                            "internalType": "uint256",
                            "name": "attackStrength",
                            "type": "uint256"
                        },
                        {
                            "internalType": "uint256",
                            "name": "defenseStrength",
                            "type": "uint256"
                        }
                    ],
                    "internalType": "struct AVAXGods.GameToken[]",
                    "name": "",
                    "type": "tuple[]"
                }
            ],
            "stateMutability": "view",
            "type": "function"
        },
        {
            "inputs": [],
            "name": "getAllPlayers",
            "outputs": [
                {
                    "components": [
                        {
                            "internalType": "address",
                            "name": "playerAddress",
                            "type": "address"
                        },
                        {
                            "internalType": "string",
                            "name": "playerName",
                            "type": "string"
                        },
                        {
                            "internalType": "uint256",
                            "name": "playerMana",
                            "type": "uint256"
                        },
                        {
                            "internalType": "uint256",
                            "name": "playerHealth",
                            "type": "uint256"
                        },
                        {
                            "internalType": "bool",
                            "name": "inBattle",
                            "type": "bool"
                        }
                    ],
                    "internalType": "struct AVAXGods.Player[]",
                    "name": "",
                    "type": "tuple[]"
                }
            ],
            "stateMutability": "view",
            "type": "function"
        },
        {
            "inputs": [
                {
                    "internalType": "string",
                    "name": "_name",
                    "type": "string"
                }
            ],
            "name": "getBattle",
            "outputs": [
                {
                    "components": [
                        {
                            "internalType": "enum AVAXGods.BattleStatus",
                            "name": "battleStatus",
                            "type": "uint8"
                        },
                        {
                            "internalType": "bytes32",
                            "name": "battleHash",
                            "type": "bytes32"
                        },
                        {
                            "internalType": "string",
                            "name": "name",
                            "type": "string"
                        },
                        {
                            "internalType": "address[2]",
                            "name": "players",
                            "type": "address[2]"
                        },
                        {
                            "internalType": "uint8[2]",
                            "name": "moves",
                            "type": "uint8[2]"
                        },
                        {
                            "internalType": "address",
                            "name": "winner",
                            "type": "address"
                        }
                    ],
                    "internalType": "struct AVAXGods.Battle",
                    "name": "",
                    "type": "tuple"
                }
            ],
            "stateMutability": "view",
            "type": "function"
        },
        {
            "inputs": [
                {
                    "internalType": "string",
                    "name": "_battleName",
                    "type": "string"
                }
            ],
            "name": "getBattleMoves",
            "outputs": [
                {
                    "internalType": "uint256",
                    "name": "P1Move",
                    "type": "uint256"
                },
                {
                    "internalType": "uint256",
                    "name": "P2Move",
                    "type": "uint256"
                }
            ],
            "stateMutability": "view",
            "type": "function"
        },
        {
            "inputs": [
                {
                    "internalType": "address",
                    "name": "addr",
                    "type": "address"
                }
            ],
            "name": "getPlayer",
            "outputs": [
                {
                    "components": [
                        {
                            "internalType": "address",
                            "name": "playerAddress",
                            "type": "address"
                        },
                        {
                            "internalType": "string",
                            "name": "playerName",
                            "type": "string"
                        },
                        {
                            "internalType": "uint256",
                            "name": "playerMana",
                            "type": "uint256"
                        },
                        {
                            "internalType": "uint256",
                            "name": "playerHealth",
                            "type": "uint256"
                        },
                        {
                            "internalType": "bool",
                            "name": "inBattle",
                            "type": "bool"
                        }
                    ],
                    "internalType": "struct AVAXGods.Player",
                    "name": "",
                    "type": "tuple"
                }
            ],
            "stateMutability": "view",
            "type": "function"
        },
        {
            "inputs": [
                {
                    "internalType": "address",
                    "name": "addr",
                    "type": "address"
                }
            ],
            "name": "getPlayerToken",
            "outputs": [
                {
                    "components": [
                        {
                            "internalType": "string",
                            "name": "name",
                            "type": "string"
                        },
                        {
                            "internalType": "uint256",
                            "name": "id",
                            "type": "uint256"
                        },
                        {
                            "internalType": "uint256",
                            "name": "attackStrength",
                            "type": "uint256"
                        },
                        {
                            "internalType": "uint256",
                            "name": "defenseStrength",
                            "type": "uint256"
                        }
                    ],
                    "internalType": "struct AVAXGods.GameToken",
                    "name": "",
                    "type": "tuple"
                }
            ],
            "stateMutability": "view",
            "type": "function"
        },
        {
            "inputs": [],
            "name": "getTotalSupply",
            "outputs": [
                {
                    "internalType": "uint256",
                    "name": "",
                    "type": "uint256"
                }
            ],
            "stateMutability": "view",
            "type": "function"
        },
        {
            "inputs": [
                {
                    "internalType": "address",
                    "name": "account",
                    "type": "address"
                },
                {
                    "internalType": "address",
                    "name": "operator",
                    "type": "address"
                }
            ],
            "name": "isApprovedForAll",
            "outputs": [
                {
                    "internalType": "bool",
                    "name": "",
                    "type": "bool"
                }
            ],
            "stateMutability": "view",
            "type": "function"
        },
        {
            "inputs": [
                {
                    "internalType": "string",
                    "name": "_name",
                    "type": "string"
                }
            ],
            "name": "isBattle",
            "outputs": [
                {
                    "internalType": "bool",
                    "name": "",
                    "type": "bool"
                }
            ],
            "stateMutability": "view",
            "type": "function"
        },
        {
            "inputs": [
                {
                    "internalType": "address",
                    "name": "addr",
                    "type": "address"
                }
            ],
            "name": "isPlayer",
            "outputs": [
                {
                    "internalType": "bool",
                    "name": "",
                    "type": "bool"
                }
            ],
            "stateMutability": "view",
            "type": "function"
        },
        {
            "inputs": [
                {
                    "internalType": "address",
                    "name": "addr",
                    "type": "address"
                }
            ],
            "name": "isPlayerToken",
            "outputs": [
                {
                    "internalType": "bool",
                    "name": "",
                    "type": "bool"
                }
            ],
            "stateMutability": "view",
            "type": "function"
        },
        {
            "inputs": [
                {
                    "internalType": "string",
                    "name": "_name",
                    "type": "string"
                }
            ],
            "name": "joinBattle",
            "outputs": [
                {
                    "components": [
                        {
                            "internalType": "enum AVAXGods.BattleStatus",
                            "name": "battleStatus",
                            "type": "uint8"
                        },
                        {
                            "internalType": "bytes32",
                            "name": "battleHash",
                            "type": "bytes32"
                        },
                        {
                            "internalType": "string",
                            "name": "name",
                            "type": "string"
                        },
                        {
                            "internalType": "address[2]",
                            "name": "players",
                            "type": "address[2]"
                        },
                        {
                            "internalType": "uint8[2]",
                            "name": "moves",
                            "type": "uint8[2]"
                        },
                        {
                            "internalType": "address",
                            "name": "winner",
                            "type": "address"
                        }
                    ],
                    "internalType": "struct AVAXGods.Battle",
                    "name": "",
                    "type": "tuple"
                }
            ],
            "stateMutability": "nonpayable",
            "type": "function"
        },
        {
            "inputs": [],
            "name": "owner",
            "outputs": [
                {
                    "internalType": "address",
                    "name": "",
                    "type": "address"
                }
            ],
            "stateMutability": "view",
            "type": "function"
        },
        {
            "inputs": [
                {
                    "internalType": "address",
                    "name": "",
                    "type": "address"
                }
            ],
            "name": "playerInfo",
            "outputs": [
                {
                    "internalType": "uint256",
                    "name": "",
                    "type": "uint256"
                }
            ],
            "stateMutability": "view",
            "type": "function"
        },
        {
            "inputs": [
                {
                    "internalType": "address",
                    "name": "",
                    "type": "address"
                }
            ],
            "name": "playerTokenInfo",
            "outputs": [
                {
                    "internalType": "uint256",
                    "name": "",
                    "type": "uint256"
                }
            ],
            "stateMutability": "view",
            "type": "function"
        },
        {
            "inputs": [
                {
                    "internalType": "uint256",
                    "name": "",
                    "type": "uint256"
                }
            ],
            "name": "players",
            "outputs": [
                {
                    "internalType": "address",
                    "name": "playerAddress",
                    "type": "address"
                },
                {
                    "internalType": "string",
                    "name": "playerName",
                    "type": "string"
                },
                {
                    "internalType": "uint256",
                    "name": "playerMana",
                    "type": "uint256"
                },
                {
                    "internalType": "uint256",
                    "name": "playerHealth",
                    "type": "uint256"
                },
                {
                    "internalType": "bool",
                    "name": "inBattle",
                    "type": "bool"
                }
            ],
            "stateMutability": "view",
            "type": "function"
        },
        {
            "inputs": [
                {
                    "internalType": "string",
                    "name": "_battleName",
                    "type": "string"
                }
            ],
            "name": "quitBattle",
            "outputs": [],
            "stateMutability": "nonpayable",
            "type": "function"
        },
        {
            "inputs": [
                {
                    "internalType": "string",
                    "name": "_name",
                    "type": "string"
                },
                {
                    "internalType": "string",
                    "name": "_gameTokenName",
                    "type": "string"
                }
            ],
            "name": "registerPlayer",
            "outputs": [],
            "stateMutability": "nonpayable",
            "type": "function"
        },
        {
            "inputs": [],
            "name": "renounceOwnership",
            "outputs": [],
            "stateMutability": "nonpayable",
            "type": "function"
        },
        {
            "inputs": [
                {
                    "internalType": "address",
                    "name": "from",
                    "type": "address"
                },
                {
                    "internalType": "address",
                    "name": "to",
                    "type": "address"
                },
                {
                    "internalType": "uint256[]",
                    "name": "ids",
                    "type": "uint256[]"
                },
                {
                    "internalType": "uint256[]",
                    "name": "amounts",
                    "type": "uint256[]"
                },
                {
                    "internalType": "bytes",
                    "name": "data",
                    "type": "bytes"
                }
            ],
            "name": "safeBatchTransferFrom",
            "outputs": [],
            "stateMutability": "nonpayable",
            "type": "function"
        },
        {
            "inputs": [
                {
                    "internalType": "address",
                    "name": "from",
                    "type": "address"
                },
                {
                    "internalType": "address",
                    "name": "to",
                    "type": "address"
                },
                {
                    "internalType": "uint256",
                    "name": "id",
                    "type": "uint256"
                },
                {
                    "internalType": "uint256",
                    "name": "amount",
                    "type": "uint256"
                },
                {
                    "internalType": "bytes",
                    "name": "data",
                    "type": "bytes"
                }
            ],
            "name": "safeTransferFrom",
            "outputs": [],
            "stateMutability": "nonpayable",
            "type": "function"
        },
        {
            "inputs": [
                {
                    "internalType": "address",
                    "name": "operator",
                    "type": "address"
                },
                {
                    "internalType": "bool",
                    "name": "approved",
                    "type": "bool"
                }
            ],
            "name": "setApprovalForAll",
            "outputs": [],
            "stateMutability": "nonpayable",
            "type": "function"
        },
        {
            "inputs": [
                {
                    "internalType": "string",
                    "name": "newuri",
                    "type": "string"
                }
            ],
            "name": "setURI",
            "outputs": [],
            "stateMutability": "nonpayable",
            "type": "function"
        },
        {
            "inputs": [
                {
                    "internalType": "bytes4",
                    "name": "interfaceId",
                    "type": "bytes4"
                }
            ],
            "name": "supportsInterface",
            "outputs": [
                {
                    "internalType": "bool",
                    "name": "",
                    "type": "bool"
                }
            ],
            "stateMutability": "view",
            "type": "function"
        },
        {
            "inputs": [
                {
                    "internalType": "uint256",
                    "name": "tokenId",
                    "type": "uint256"
                }
            ],
            "name": "tokenURI",
            "outputs": [
                {
                    "internalType": "string",
                    "name": "",
                    "type": "string"
                }
            ],
            "stateMutability": "view",
            "type": "function"
        },
        {
            "inputs": [],
            "name": "totalSupply",
            "outputs": [
                {
                    "internalType": "uint256",
                    "name": "",
                    "type": "uint256"
                }
            ],
            "stateMutability": "view",
            "type": "function"
        },
        {
            "inputs": [
                {
                    "internalType": "uint256",
                    "name": "id",
                    "type": "uint256"
                }
            ],
            "name": "totalSupply",
            "outputs": [
                {
                    "internalType": "uint256",
                    "name": "",
                    "type": "uint256"
                }
            ],
            "stateMutability": "view",
            "type": "function"
        },
        {
            "inputs": [
                {
                    "internalType": "address",
                    "name": "newOwner",
                    "type": "address"
                }
            ],
            "name": "transferOwnership",
            "outputs": [],
            "stateMutability": "nonpayable",
            "type": "function"
        },
        {
            "inputs": [
                {
                    "internalType": "uint256",
                    "name": "",
                    "type": "uint256"
                }
            ],
            "name": "uri",
            "outputs": [
                {
                    "internalType": "string",
                    "name": "",
                    "type": "string"
                }
            ],
            "stateMutability": "view",
            "type": "function"
        }
    ],
    "bytecode": "0x60806040523462000aaa5762004f8e803803806200001d8162000aef565b92833981019060208183031262000aaa578051906001600160401b03821162000aaa570181601f8201121562000aaa578051906001600160401b038211620007325762000074601f8301601f191660200162000aef565b928284526020838301011162000aaa5760005b82811062000a9457600083850160200152835184906001600160401b0381116200073257600254600181811c9116801562000a89575b60208210146200071157601f811162000a47575b50806020601f8211600114620009cf57600091620009c3575b508160011b916000199060031b1c1916176002555b60038054336001600160a01b0319821681179092556001600160a01b03167f8be0079c531659141344cd1fd0a4f28419497f9722a3daafe3b4186f6b6457e0600080a380516001600160401b0381116200073257600554600181811c91168015620009b8575b60208210146200071157601f811162000981575b50602091601f821160011462000917579181926000926200090b575b50508160011b916000199060031b1c1916176005555b604051608081016001600160401b038111828210176200073257604052620001d262000acf565b6000815281526020810190600082526040810160008152606082019060008252600b546801000000000000000081101562000732576001810180600b558110156200075e57600b600052925180519460029490941b7f0175b7a638427703f0dbe7bb9bbf987a2551717b34e79f33b5b1008d1fa01db90193906001600160401b03861162000732578454600181811c9116801562000900575b60208210146200071157601f8111620008ca575b50602090601f87116001146200085b57958091600396976000926200084f575b50508160011b9160001990871b1c19161785555b5160018501555160028401555191015560405160a081016001600160401b03811182821017620007325760405260008152620002ee62000acf565b600081526020820152600060408201526000606082015260006080820152600a54906801000000000000000082101562000732576001820180600a558210156200075e57600a6000528051600583027fc65a7bb8d6351c1cf70c95a316cc6a92839c986682d98bc35f958f4883f9d2a890810180546001600160a01b0319166001600160a01b039390931692909217909155602082015180519093906001600160401b038111620007325760016005830284010154600181811c9116801562000844575b60208210146200071157601f811162000806575b506020601f821160011462000780579181600592600495946080979860009262000774575b50508160011b916000199060031b1c1916176001838302850101555b60408601516002838302850101556060860151600383830285010155020101910151151560ff801983541691161790556200044162000aaf565b60008152600060208201526200045662000aaf565b60008082526020820152604051916001600160401b0360c0840190811190841117620007325760c0830160405260008352600060208401526200049862000acf565b60008152604084015260608301526080820152600060a0820152600c54906801000000000000000082101562000732576001820180600c558210156200075e57600c60005280517fdf6966c971051c3d54ec59162606531493a51404a002842f56009d7e5cf4a8c79060038110156200074857600784028201805460ff191660ff929092169190911781556020830151600182015560408301518051600290920191906001600160401b0382116200073257825490600182811c9216801562000727575b6020831014620007115781601f849311620006cf575b50602090601f8311600114620006645760009262000658575b50508160011b916000199060031b1c19161790555b606082015160005b6002811062000632575050608082015192600093845b600281106200060d576007830284016005810187905560a086015160069190910180546001600160a01b0319166001600160a01b039290921691909117905560405161443f908162000b2f8239f35b9094602060019160ff8851169060ff8560031b92831b921b19161796019101620005be565b81516001600160a01b0316600360078702850183010155602090910190600101620005a8565b0151905086806200058b565b6000858152602081209350601f198516905b818110620006b657509084600195949392106200069c575b505050811b019055620005a0565b015160001960f88460031b161c191690558680806200068e565b9293602060018192878601518155019501930162000676565b620006ff90856000526020600020601f850160051c8101916020861062000706575b601f0160051c019062000b15565b8762000572565b9091508190620006f1565b634e487b7160e01b600052602260045260246000fd5b91607f16916200055c565b634e487b7160e01b600052604160045260246000fd5b634e487b7160e01b600052602160045260246000fd5b634e487b7160e01b600052603260045260246000fd5b015190508880620003eb565b60016005840285010160005260206000209560005b601f1984168110620007ed575082608096976004969593600193600596601f19811610620007d3575b505050811b0160018383028501015562000407565b015160001960f88460031b161c19169055888080620007be565b8282015188556001909701966020928301920162000795565b6200083d906001600585028601016000526020600020601f840160051c810191602085106200070657601f0160051c019062000b15565b85620003c6565b90607f1690620003b2565b0151905087806200029f565b90601f198716918660005260206000209260005b818110620008b157509160019391896003999a941062000898575b505050811b018555620002b3565b015160001983891b60f8161c191690558780806200088a565b929360206001819287860151815501950193016200086f565b620008f990866000526020600020601f890160051c81019160208a106200070657601f0160051c019062000b15565b866200027f565b90607f16906200026b565b01519050828062000195565b601f19821692600560005260206000209160005b85811062000968575083600195106200094e575b505050811b01600555620001ab565b015160001960f88460031b161c191690558280806200093f565b919260206001819286850151815501940192016200092b565b620009b19060056000526020600020601f840160051c810191602085106200070657601f0160051c019062000b15565b8262000179565b90607f169062000165565b905082015183620000ea565b6002600090815260008051602062004f6e8339815191529250601f198416905b81811062000a2e5750908360019493921062000a14575b5050811b01600255620000ff565b84015160001960f88460031b161c19169055838062000a06565b91926020600181928689015181550194019201620009ef565b600260005262000a829060008051602062004f6e833981519152601f840160051c810191602085106200070657601f0160051c019062000b15565b82620000d1565b90607f1690620000bd565b8060208092840101518282870101520162000087565b600080fd5b60408051919082016001600160401b038111838210176200073257604052565b60405190602082016001600160401b038111838210176200073257604052565b6040519190601f01601f191682016001600160401b038111838210176200073257604052565b81811062000b21575050565b6000815560010162000b1556fe6080604052600436101561001257600080fd5b60003560e01c8062fdd58e14612db0578063015a379214612cc757806301ffc9a714612c5957806302fe530514612b305780630677aa4e14612b1457806309c95e1014612af15780630daea2cd14612ad55780630e89341c14612a2457806310898e4c146129ec5780631107ae3d146129b257806316801d171461296857806318160ddd146109d65780632711162e1461292e5780632ca04522146127b15780632eb2c2d6146123705780633835e2b5146123145780634b114691146122da5780634e1273f41461213c5780634f558e791461210e5780635c12cd4b146120d65780635c93fc3d14611fed578063606d2e9614611f6c5780636c0360eb14611e8a578063703730a514611e6e578063715018a614611e11578063845f433b14611b3d5780638da5cb5b14611b14578063996d7bea14611a415780639b09cc87146119eb5780639e4ecd11146119cf5780639ec40aa314611997578063a1b4f57c1461177d578063a22cb46514611690578063ba27495614610abb578063bd85b03914610a8f578063bf034b6914610a21578063bf103a4d146109f4578063c4e41b22146109d6578063c87b56dd146108ca578063d2198cc5146108ae578063de96cefc14610892578063e985e9c51461083c578063efa1c48214610753578063f1da733914610737578063f242432a1461036e578063f2fde38b146102ab5763f71d96cb1461022057600080fd5b346102a65760203660031901126102a657600435600a548110156102a65761024790613257565b5080546001600160a01b031661025f60018301613192565b9160028101549060ff600460038301549201541690610290604051958695865260a0602087015260a0860190612e2e565b9260408501526060840152151560808301520390f35b600080fd5b346102a65760203660031901126102a6576102c4612ddf565b6102cc613276565b6001600160a01b0390811690811561031a57600380546001600160a01b031981168417909155167f8be0079c531659141344cd1fd0a4f28419497f9722a3daafe3b4186f6b6457e0600080a3005b60405162461bcd60e51b815260206004820152602660248201527f4f776e61626c653a206e6577206f776e657220697320746865207a65726f206160448201526564647265737360d01b6064820152608490fd5b346102a65760a03660031901126102a657610387612ddf565b61038f612df5565b90608480356001600160401b0381116102a6576103b0903690600401612f2f565b6001600160a01b0391908383163314801561070c575b6103cf90613399565b828516156103dd81156133fc565b6103e860443561360f565b6103f360643561360f565b91858716156106ac575b6105ec575b50506044356000526020946000865260406000208486166000528652604060002054610432606435821015613456565b604435600052600087526040600020858716600052875260643590036040600020556044356000526000865260406000208482166000528652604060002061047d60643582546134b5565b905560405160443581526064358782015284821690858716907fc3d58168c5ae7397731d063d5bbf3d657854427343f4c083240f7aacaa2d0f6260403392a4803b6104c457005b60a0600061050e958895604051978896879586938563f23a6e6160e01b9d8e87523360048801521660248601526044356044860152606435606486015284015260a4830190612e2e565b0393165af1600091816105bd575b5061059357505060019061052e61352b565b6308c379a01461055e575b50610541575b005b60405162461bcd60e51b81528061055a600482016135ba565b0390fd5b610566613549565b90816105725750610539565b61055a60405192839262461bcd60e51b845260048401526024830190612e2e565b6001600160e01b03191614905061053f5760405162461bcd60e51b81528061055a600482016134e2565b6105de919250843d86116105e5575b6105d68183612ef3565b8101906134c2565b908461051c565b503d6105cc565b92959194909360005b845181101561069d576106088186613385565b51906106148188613385565b518260005260046020526040600020548181106106485761064393600052600460205203604060002055613353565b6105f5565b60405162461bcd60e51b815260206004820152602860248201527f455243313135353a206275726e20616d6f756e74206578636565647320746f74604482015267616c537570706c7960c01b60648201528b90fd5b50935093909491508580610402565b959260009794919592975b86518110156106fe57806106ce6106f9928b613385565b516106d9828a613385565b5160005260046020526106f260406000209182546134b5565b9055613353565b6106b7565b5092959691949093966103fd565b5082841660005260016020526040600020336000526020526103cf60ff6040600020541690506103c6565b346102a65760003660031901126102a657602060405160048152f35b346102a65760003660031901126102a657600a5461077081613032565b9061077e6040519283612ef3565b808252600a6000908152602091828401917fc65a7bb8d6351c1cf70c95a316cc6a92839c986682d98bc35f958f4883f9d2a8835b8383106108195750505050604051918083019381845251809452604083019360408160051b85010192916000955b8287106107ed5785850386f35b909192938280610809600193603f198a820301865288516130db565b96019201960195929190926107e0565b60058660019261082b859a999a61365a565b8152019201920191909594956107b2565b346102a65760403660031901126102a657610855612ddf565b61085d612df5565b9060018060a01b03809116600052600160205260406000209116600052602052602060ff604060002054166040519015158152f35b346102a65760003660031901126102a657602060405160018152f35b346102a65760003660031901126102a657602060405160008152f35b346102a6576020806003193601126102a6576108e7600435614329565b906040519182600091600554926108fd84613158565b6001948686821691826000146109b157505060011461096f575b509264173539b7b760d91b6006939285602f60f81b6109579752610943825180938a8785019101612e0b565b019182015203601919810185520183612ef3565b61096b604051928284938452830190612e2e565b0390f35b8591506005600052816000206000905b82821061099957505083010164173539b7b760d91b610917565b8054898301850152889550879390910190860161097f565b60ff1916818701528215159092028501909101915064173539b7b760d91b9050610917565b346102a65760003660031901126102a6576020600654604051908152f35b346102a65760203660031901126102a6576020610a17610a12612ddf565b61374a565b6040519015158152f35b346102a65760203660031901126102a657600435600b548110156102a657610a4b610a7b91613238565b50610a5581613192565b906001810154906003600282015491015490604051948594608086526080860190612e2e565b926020850152604084015260608301520390f35b346102a65760203660031901126102a65760043560005260046020526020604060002054604051908152f35b346102a65760403660031901126102a65760043560ff81168091036102a65760249081356001600160401b0381116102a657610afb903690600401612f2f565b90610b0582613988565b805160038110156116075760010361161c5780516003811015611607576002146115c8576060810190815160018060a01b0381511633149081156115b1575b501561156d57608001518151516001600160a01b03163303611565576000905b600260ff8316101561146157611fe060ff9260051b160151166115215751516001600160a01b0316330361151a5760005b60018214808015611510575b156114cc57156114c55760036040610bb8336136aa565b015110155b156114765760405191610bee84519360208181880196610bde81838a612e0b565b8101600981520301902054613123565b5090600260ff8416101561146157601f6005610c2493600786831c160101931683549060ff809160031b9316831b921b19161790565b90556080610c3183613988565b0180515160ff166114585760ff60005b166002039060ff82116111db57516020015160ff1661144e5760ff8060005b1691160360ff81116110fb5760ff16906001820361144357610c906001915b604051809281928751928391612e0b565b8101039020901515907f54b82b77e7ae55a8e6c9e89deba70c7191dea2a3b08ae647b380e9f981d6a0f8600080a315610cc557005b610cce90613988565b606081015180516001600160a01b0316331490811561142c575b50156113d457608081015160ff815116151590816113c3575b50156113755760018060a01b0360608201515116600052600760205260406000205460ff608083015151166060610d4360018060a01b038286015151166136aa565b0151606084015151604090610d60906001600160a01b03166137c9565b015160608581015151919291610d7e906001600160a01b03166137c9565b01519260405194610d8e86612ebd565b8552602085015260408401526060830152608082015260018060a01b0360206060840151015116600052600760205260406000205460ff602060808501510151166060610de960018060a01b036020838801510151166136aa565b0151606085015160200151604090610e09906001600160a01b03166137c9565b015160608681015160200151919291610e2a906001600160a01b03166137c9565b01519260405194610e3a86612ebd565b8552602085015260408401526060830152608082015260405191610e5d83612e87565b600083526000602084015282602082015160018114808091611367575b1561112557505050606081015160408301511161104a575050606082015151610ead9083906001600160a01b03166141c6565b505b604051906000825b6002821061102a5750505060407fc6bf860cbc15f7020f73993a671f01bbb1831a8a7a12c126ca735eb632e7577591a160006080820151526000602060808301510152610f0881604081015161415c565b606081015151610f20906001600160a01b0316613f40565b60018060a01b03606083015151166000526008602052806002610f47604060002054613238565b500155600a03600a81116110155760018060a01b036060830151511660005260086020526003610f7b604060002054613238565b500155606081015160200151610f99906001600160a01b0316613f40565b60018060a01b03602060608401510151166000526008602052806002610fc3604060002054613238565b500155600a0391600a831161100157506020606060018060a01b0392015101511660005260086020526003610ffc604060002054613238565b500155005b634e487b7160e01b60009081526011600452fd5b82634e487b7160e01b60005260116004526000fd5b82516001600160a01b031681526020928301926001929092019101610eb7565b6060820151604082015181106110805750505060608201516020015161107a9083906001600160a01b03166141c6565b50610eaf565b6002929350906110c1916110a360036110998451613257565b5001918254613f33565b905560608101516110b960036110998751613257565b905551613257565b500180546002199283820192918311611110576002926110e2925551613257565b500180549182019182116110fb57556060810151610eaf565b83634e487b7160e01b60005260116004526000fd5b85634e487b7160e01b60005260116004526000fd5b80611359575b15611213575061114460408401516080850151906134b5565b6060830151909290918383106111735750505060608401515161107a92508491506001600160a01b03166141c6565b6002936111a693806080880151116000146111f05750505060408401515b600361119d8651613257565b50015551613257565b50018054600219810192908311611110576002926111c5925551613257565b5001805490600382018092116111db5755610eaf565b84634e487b7160e01b60005260116004526000fd5b6111f991613f33565b6060880151602001516001600160a01b0316909152611191565b600214808061134b575b156112e7575061123660408301516080840151906134b5565b6060840151909290918383106112685750505060608401516020015161107a92508491506001600160a01b03166141c6565b60029361129293806080850151116000146112c75750505060408101515b600361119d8351613257565b500180549160038301809311611110576002926112b0925551613257565b500180546002198101919082116111db5755610eaf565b6112d091613f33565b6060880151516001600160a01b0316909152611286565b90508061133d575b6112fb575b5050610eaf565b61130760029151613257565b50018054916003830180931161111057600292611325925551613257565b5001805490600382018092116111db575583806112f4565b5060026020830151146112ef565b50600160208501511461121d565b50600260208501511461112b565b506001602086015114610e7a565b60405162461bcd60e51b8152602060048201526021818401527f506c6179657273207374696c6c206e65656420746f206d616b652061206d6f766044820152606560f81b6064820152608490fd5b60ff91506020015116151583610d01565b60405162461bcd60e51b815260206004820152602b818401527f4f6e6c7920706c617965727320696e207468697320626174746c652063616e2060448201526a6d616b652061206d6f766560a81b6064820152608490fd5b602001516001600160a01b03163314905083610ce8565b610c90600091610c7f565b60ff806001610c60565b60ff6001610c41565b85634e487b7160e01b60005260326004526000fd5b60405162461bcd60e51b8152602060048201526022818601527f4d616e61206e6f742073756666696369656e7420666f722061747461636b696e604482015261672160f01b6064820152608490fd5b6001610bbd565b60405162461bcd60e51b815260206004820152601f818701527f43686f6963652073686f756c64206265206569746865722031206f72203221006044820152606490fd5b5060028314610ba1565b6001610b95565b60405162461bcd60e51b815260206004820152601d818601527f596f75206861766520616c7265616479206d6164652061206d6f7665210000006044820152606490fd5b600190610b64565b60405162461bcd60e51b815260206004820152601a818701527f596f7520617265206e6f7420696e207468697320626174746c650000000000006044820152606490fd5b602001516001600160a01b03163314905086610b44565b60405162461bcd60e51b8152602060048201526018818601527710985d1d1b19481a185cc8185b1c9958591e48195b99195960421b6044820152606490fd5b84634e487b7160e01b60005260216004526000fd5b60405162461bcd60e51b8152602060048201526041818601527f426174746c65206e6f7420737461727465642e20506c656173652074656c6c2060448201527f616e6f7468657220706c6179657220746f206a6f696e2074686520626174746c6064820152606560f81b608482015260a490fd5b346102a65760403660031901126102a6576116a9612ddf565b60243590811515908183036102a6576001600160a01b031691338314611726576116f89033600052600160205260406000208460005260205260406000209060ff801983541691151516179055565b6040519081527f17307eab39ab6107e8899845ad3d59bd9653f200f220920489ca2b5937696c3160203392a3005b60405162461bcd60e51b815260206004820152602960248201527f455243313135353a2073657474696e6720617070726f76616c20737461747573604482015268103337b91039b2b63360b91b6064820152608490fd5b346102a6576020806003193601126102a6576004356001600160401b0381116102a6576117ae903690600401612f2f565b906117b7613879565b506117c182613988565b918251600381101561198157611942576060830180515190916001600160a01b0391821633146118f35760806117f6336136aa565b01516118ba5784611810916001825233868651015261415c565b808251511660005260078352600461182c604060002054613257565b500160ff199060018282541617905581848451015116600052600784526001600461185b604060002054613257565b5001918254161790556040840151915151167f024187b16c217a79f8d8e6252b542ec6e278fa91304acd9cfd866f2bbf00bd08604051848152806118a3339587830190612e2e565b0390a361096b604051928284938452830190612f83565b60405162461bcd60e51b8152600481018590526011602482015270416c726561647920696e20626174746c6560781b6044820152606490fd5b60405162461bcd60e51b815260048101859052602160248201527f4f6e6c7920706c617965722074776f2063616e206a6f696e206120626174746c6044820152606560f81b6064820152608490fd5b60405162461bcd60e51b8152600481018390526017602482015276426174746c6520616c726561647920737461727465642160481b6044820152606490fd5b634e487b7160e01b600052602160045260246000fd5b346102a65760203660031901126102a6576004356001600160401b0381116102a6576119ca61053f913690600401612f2f565b613a64565b346102a65760003660031901126102a657602060405160058152f35b346102a65760203660031901126102a6576004356001600160401b0381116102a6576080611a27611a226040933690600401612f2f565b613988565b015160ff6020818351169201511682519182526020820152f35b346102a65760203660031901126102a6576004356001600160401b0381116102a657611a22611a74913690600401612f2f565b6060810190815160018060a01b0390818151163314908115611b04575b5015611abf578251518116338103611ab35750602061053f93510151166141c6565b905061053f92506141c6565b60405162461bcd60e51b815260206004820152601b60248201527f596f7520617265206e6f7420696e207468697320626174746c652100000000006044820152606490fd5b6020015182163314905084611a91565b346102a65760003660031901126102a6576003546040516001600160a01b039091168152602090f35b346102a65760403660031901126102a6576001600160401b036004358181116102a657611b6e903690600401612f2f565b6024358281116102a657611b86903690600401612f2f565b611b8f33613634565b611dd057600a54604051611ba281612ebd565b338152602081019084825260408101600a815260608201906019825260006080840152600160401b851015611da45760018501600a55611be185613257565b949094611dba57835185546001600160a01b0319166001600160a01b039190911617855551805190988111611da457611c1d6001860154613158565b601f8111611d64575b506020601f8211600114611ce6579260809282611c8a979693600496611c9e9c9d600092611cdb575b50508160011b916000199060031b1c19161760018701555b5160028601555160038501550151151591019060ff801983541691151516179055565b336000526007602052604060002055613a64565b7f81ef79d1cda814a60c0fc60792e648a06d9c6bae67176346d1cc8b63030bfccd6040516020815280611cd633946020830190612e2e565b0390a2005b015190508d80611c4f565b6001860160005260206000209960005b601f1984168110611d4c575092600183611c9e9b9c60049794608097611c8a9b9a97601f19811610611d33575b505050811b016001870155611c67565b015160001960f88460031b161c191690558d8080611d23565b828201518c556001909b019a60209283019201611cf6565b611d9490600187016000526020600020601f840160051c81019160208510611d9a575b601f0160051c0190613a01565b89611c26565b9091508190611d87565b634e487b7160e01b600052604160045260246000fd5b634e487b7160e01b600052600060045260246000fd5b60405162461bcd60e51b8152602060048201526019602482015278141b185e595c88185b1c9958591e481c9959da5cdd195c9959603a1b6044820152606490fd5b346102a65760003660031901126102a657611e2a613276565b600380546001600160a01b031981169091556000906001600160a01b03167f8be0079c531659141344cd1fd0a4f28419497f9722a3daafe3b4186f6b6457e08280a3005b346102a65760003660031901126102a657602060405160028152f35b346102a65760003660031901126102a657604051600090600554611ead81613158565b808352600191808316908115611f445750600114611eea575b61096b83611ed681870382612ef3565b604051918291602083526020830190612e2e565b6005600090815260209450917f036b6384b5eca791c62761152d0c79bb0604c104a5fb6f4eb0703f3154bb3db05b828410611f3157505050810190910190611ed681611ec6565b8054858501870152928501928101611f18565b61096b9550611ed693506020915091849260ff191682840152151560051b8201019350611ec6565b346102a65760203660031901126102a657600435600c548110156102a657611f96611fcd91613123565b5060ff81541690611fe3600182015491611fb260028201613192565b90600660018060a01b03910154169260405195868096612f76565b6020850152608060408501526080840190612e2e565b9060608301520390f35b346102a65760003660031901126102a657600c5461200a81613032565b906120186040519283612ef3565b808252600c6000908152602091828401917fdf6966c971051c3d54ec59162606531493a51404a002842f56009d7e5cf4a8c7835b8383106120b35750505050604051918083019381845251809452604083019360408160051b85010192916000955b8287106120875785850386f35b9091929382806120a3600193603f198a82030186528851612f83565b960192019601959291909261207a565b6007866001926120c5859a999a6138c8565b81520192019201919095949561204c565b346102a65760203660031901126102a65761096b6120fa6120f5612ddf565b6136aa565b6040519182916020835260208301906130db565b346102a65760203660031901126102a657600435600052600460205260206040600020541515604051908152f35b346102a65760403660031901126102a6576004356001600160401b038082116102a657366023830112156102a65781600401359061217982613032565b926121876040519485612ef3565b82845260209260248486019160051b830101913683116102a657602401905b8282106122bb575050506024359081116102a6576121c8903690600401613049565b8251815103612264578251926121dd84613032565b936121eb6040519586612ef3565b8085526121fa601f1991613032565b01368486013760005b815181101561224d57612248906122386001600160a01b036122258386613385565b51166122318387613385565b51906132ce565b6122428288613385565b52613353565b612203565b50505061096b6040519282849384528301906130a7565b60405162461bcd60e51b815260048101839052602960248201527f455243313135353a206163636f756e747320616e6420696473206c656e677468604482015268040dad2e6dac2e8c6d60bb1b6064820152608490fd5b81356001600160a01b03811681036102a65781529084019084016121a6565b346102a65760203660031901126102a6576001600160a01b036122fb612ddf565b1660005260076020526020604060002054604051908152f35b346102a65760203660031901126102a6576004356001600160401b0381116102a65761235d602061234a81933690600401612f2f565b8160405193828580945193849201612e0b565b8101600981520301902054604051908152f35b346102a65760031960a0368201126102a65761238a612ddf565b90612393612df5565b906001600160401b03604480358281116102a6576123b5903690600401613049565b9060649081358481116102a6576123d0903690600401613049565b9460849485359081116102a6576123eb903690600401612f2f565b6001600160a01b0398891698909190338a148015612788575b61240d90613399565b855188510361273557881695861561242581156133fc565b8a156126f2575b61262d575b60005b86518110156124c4578061244b6124bf9289613385565b518c612457838d613385565b519180600052826020926000845260406000208160005284526040600020549061248383831015613456565b8360005260008552604060002090600052845203604060002055600052600081526040600020908b600052526106f260406000209182546134b5565b612434565b5090919293968998878a604051604081527f4a39dc06d4c0dbc64b70af90fd698a233a518aa5d07e595d983b8c0526c8f7fb612503604083018c6130a7565b918083036020820152806125183394896130a7565b0390a43b61252257005b604051978896879663bc197c8160e01b9b8c89523360048a01526024890152870160a0905260a48701612554916130a7565b90848783030190870152612567916130a7565b91848303019084015261257991612e2e565b03815a602094600091f16000918161260d575b506125e5575050600161259d61352b565b6308c379a0146125ae575b61054157005b6125b6613549565b806125c157506125a8565b60405162461bcd60e51b81526020600482015290819061055a906024830190612e2e565b6001600160e01b0319161461053f5760405162461bcd60e51b81528061055a600482016134e2565b61262691925060203d81116105e5576105d68183612ef3565b908361258c565b96949398929590979160005b85518110156126e35761264c8187613385565b516126578289613385565b519080600052602060048152604060002054918383106126905761268b949392916004916000525203604060002055613353565b612639565b508b9067616c537570706c7960c01b8f7f455243313135353a206275726e20616d6f756e74206578636565647320746f748e6040519462461bcd60e51b8652600486015260286024860152840152820152fd5b50919790959298939496612431565b98959996949392919060005b8b5181101561272657808c6106d98261271a612721958f613385565b5192613385565b6126fe565b5090919293949699959861242c565b60405162461bcd60e51b815260206004820152602860248201527f455243313135353a2069647320616e6420616d6f756e7473206c656e6774682081860152670dad2e6dac2e8c6d60c31b818701528790fd5b5089600052600160205260406000203360005260205261240d60ff604060002054169050612404565b346102a6576020806003193601126102a6576004356001600160401b0381116102a6576127e2903690600401612f2f565b906127eb613879565b506127fd6127f833613634565b613a18565b61280682613848565b6128f1578060405181810190828252612834816128266040820188612e2e565b03601f198101835282612ef3565b5190209260405161284481612e87565b3381526000838201526040519061285a82612e87565b600082526000848301526040519561287187612ea2565b600087528487015282604087015260608601526080850152600060a08501526128ac600c549283928160405193828580945193849201612e0b565b8101600981520301902055600160401b811015611da457826128d78260016128dd9401600c55613123565b90613f8c565b61096b604051928284938452830190612f83565b6064906040519062461bcd60e51b825260048201526016602482015275426174746c6520616c7265616479206578697374732160501b6044820152fd5b346102a65760203660031901126102a6576001600160a01b0361294f612ddf565b1660005260086020526020604060002054604051908152f35b346102a65760203660031901126102a6576004356001600160401b0381116102a65761299e611a2261096b923690600401612f2f565b604051918291602083526020830190612f83565b346102a65760203660031901126102a6576004356001600160401b0381116102a657610a176129e76020923690600401612f2f565b613848565b346102a65760203660031901126102a65761096b612a10612a0b612ddf565b6137c9565b604051918291602083526020830190612e53565b346102a6576020806003193601126102a6576040519060008260025491612a4a83613158565b92838352600190858282169182600014612ab5575050600114612a75575b5061095792500383612ef3565b849150600260005281600020906000915b858310612a9d575050610957935082010185612a68565b80548389018501528794508693909201918101612a86565b60ff19168582015261095795151560051b8501019250879150612a689050565b346102a65760003660031901126102a6576020604051600a8152f35b346102a65760203660031901126102a6576020610a17612b0f612ddf565b613634565b346102a65760003660031901126102a657602060405160038152f35b346102a6576020806003193601126102a6576001600160401b036004358181116102a657612b62903690600401612f2f565b91612b6b613276565b8251918211611da457612b7f600254613158565b601f8111612c28575b5080601f8311600114612bc457508192600092612bb9575b5050600019600383901b1c191660019190911b17600255005b015190508280612ba0565b90601f19831693600260005282600020926000905b868210612c105750508360019510612bf7575b505050811b01600255005b015160001960f88460031b161c19169055828080612bec565b80600185968294968601518155019501930190612bd9565b612c5390600260005282600020601f850160051c810191848610611d9a57601f0160051c0190613a01565b83612b88565b346102a65760203660031901126102a65760043563ffffffff60e01b81168091036102a657602090636cdb3d1360e11b8114908115612cb6575b8115612ca5575b506040519015158152f35b6301ffc9a760e01b14905082612c9a565b6303a24d0760e21b81149150612c93565b346102a65760003660031901126102a657600b54612ce481613032565b90612cf26040519283612ef3565b808252600b6000908152602091828401917f0175b7a638427703f0dbe7bb9bbf987a2551717b34e79f33b5b1008d1fa01db9835b838310612d8d5750505050604051918083019381845251809452604083019360408160051b85010192916000955b828710612d615785850386f35b909192938280612d7d600193603f198a82030186528851612e53565b9601920196019592919092612d54565b600486600192612d9f859a999a613790565b815201920192019190959495612d26565b346102a65760403660031901126102a6576020612dd7612dce612ddf565b602435906132ce565b604051908152f35b600435906001600160a01b03821682036102a657565b602435906001600160a01b03821682036102a657565b60005b838110612e1e5750506000910152565b8181015183820152602001612e0e565b90602091612e4781518092818552858086019101612e0b565b601f01601f1916010190565b90606080612e6a8451608085526080850190612e2e565b936020810151602085015260408101516040850152015191015290565b604081019081106001600160401b03821117611da457604052565b60c081019081106001600160401b03821117611da457604052565b60a081019081106001600160401b03821117611da457604052565b608081019081106001600160401b03821117611da457604052565b90601f801991011681019081106001600160401b03821117611da457604052565b6001600160401b038111611da457601f01601f191660200190565b81601f820112156102a657803590612f4682612f14565b92612f546040519485612ef3565b828452602083830101116102a657816000926020809301838601378301015290565b9060038210156119815752565b90612f8f818351612f76565b6020918281015183830152612fb36040820151610100806040860152840190612e2e565b926060820151606084016000905b83600283106130145750505050608082015190600060a085015b60028210612ffc575050505060e09060a0600180821b039101511691015290565b828060019260ff875116815201940191019092612fdb565b83516001600160a01b03168252928301926001929092019101612fc1565b6001600160401b038111611da45760051b60200190565b81601f820112156102a65780359161306083613032565b9261306e6040519485612ef3565b808452602092838086019260051b8201019283116102a6578301905b828210613098575050505090565b8135815290830190830161308a565b90815180825260208080930193019160005b8281106130c7575050505090565b8351855293810193928101926001016130b9565b9060018060a01b038251168152608080613104602085015160a0602086015260a0850190612e2e565b9360408101516040850152606081015160608501520151151591015290565b600c5481101561314257600c6000526007602060002091020190600090565b634e487b7160e01b600052603260045260246000fd5b90600182811c92168015613188575b602083101461317257565b634e487b7160e01b600052602260045260246000fd5b91607f1691613167565b90604051918260008254926131a684613158565b90818452600194858116908160001461321557506001146131d2575b50506131d092500383612ef3565b565b9093915060005260209081600020936000915b8183106131fd5750506131d0935082010138806131c2565b855488840185015294850194879450918301916131e5565b9150506131d094506020925060ff191682840152151560051b82010138806131c2565b600b5481101561314257600b60005260206000209060021b0190600090565b600a5481101561314257600a6000526005602060002091020190600090565b6003546001600160a01b0316330361328a57565b606460405162461bcd60e51b815260206004820152602060248201527f4f776e61626c653a2063616c6c6572206973206e6f7420746865206f776e65726044820152fd5b6001600160a01b03169081156132fb57600052600060205260406000209060005260205260406000205490565b60405162461bcd60e51b815260206004820152602a60248201527f455243313135353a2061646472657373207a65726f206973206e6f742061207660448201526930b634b21037bbb732b960b11b6064820152608490fd5b60001981146133625760010190565b634e487b7160e01b600052601160045260246000fd5b8051156131425760200190565b80518210156131425760209160051b010190565b156133a057565b60405162461bcd60e51b815260206004820152602e60248201527f455243313135353a2063616c6c6572206973206e6f7420746f6b656e206f776e60448201526d195c881bdc88185c1c1c9bdd995960921b6064820152608490fd5b1561340357565b60405162461bcd60e51b815260206004820152602560248201527f455243313135353a207472616e7366657220746f20746865207a65726f206164604482015264647265737360d81b6064820152608490fd5b1561345d57565b60405162461bcd60e51b815260206004820152602a60248201527f455243313135353a20696e73756666696369656e742062616c616e636520666f60448201526939103a3930b739b332b960b11b6064820152608490fd5b9190820180921161336257565b908160209103126102a657516001600160e01b0319811681036102a65790565b60809060208152602860208201527f455243313135353a204552433131353552656365697665722072656a656374656040820152676420746f6b656e7360c01b60608201520190565b60009060033d1161353857565b905060046000803e60005160e01c90565b600060443d106135a657604051600319913d83016004833e81516001600160401b03918282113d6024840111176135a9578184019485519384116135b1573d850101602084870101116135a957506135a692910160200190612ef3565b90565b949350505050565b50949350505050565b60809060208152603460208201527f455243313135353a207472616e7366657220746f206e6f6e2d455243313135356040820152732932b1b2b4bb32b91034b6b83632b6b2b73a32b960611b60608201520190565b6040519061361c82612e87565b600182526020368184013761363082613378565b5290565b6001600160a01b031660009081526007602052604090205461365557600090565b600190565b9060405161366781612ebd565b608060ff6004839560018060a01b03815416855261368760018201613192565b602086015260028101546040860152600381015460608601520154161515910152565b60806040516136b881612ebd565b60009181838093526060602082015282604082015282606082015201526136de82613634565b1561370d576001600160a01b039091168152600760205260409020546135a69061370790613257565b5061365a565b60405162461bcd60e51b8152602060048201526015602482015274506c6179657220646f65736e27742065786973742160581b6044820152606490fd5b6001600160a01b031660009081526008602052604090205461365557600090565b6040519061377882612ed8565b60006060838181528260208201528260408201520152565b9060405161379d81612ed8565b6060600382946137ac81613192565b845260018101546020850152600281015460408501520154910152565b6137d161376b565b506137db8161374a565b156138075760018060a01b031660005260086020526135a6613801604060002054613238565b50613790565b60405162461bcd60e51b815260206004820152601960248201527847616d6520746f6b656e20646f65736e27742065786973742160381b6044820152606490fd5b6020613861918160405193828580945193849201612e0b565b81016009815203019020541560001461365557600090565b604090600060a0835161388b81612ea2565b809483825283602083015260608183015280516138a781612e87565b8136823760608301528051906138bc82612e87565b36823760808201520152565b906040516138d581612ea2565b809260ff81541660038110156119815782526001808201549060209182850152600290613903828501613192565b60408601526040519182600386016000915b83831061396c575050505050908161392f60a09493612e87565b60608501526040519060ff6005840154818116845260081c169082015261395581612e87565b6080840152600601546000196001831b0116910152565b81546001600160a01b0316815291840191908401908601613915565b613990613879565b5061399a81613848565b156139c4576139be610bde60206135a6938160405193828580945193849201612e0b565b506138c8565b60405162461bcd60e51b8152602060048201526015602482015274426174746c6520646f65736e27742065786973742160581b6044820152606490fd5b818110613a0c575050565b60008155600101613a01565b15613a1f57565b60405162461bcd60e51b815260206004820152601c60248201527f506c6561736520526567697374657220506c61796572204669727374000000006044820152606490fd5b6080613a6f336136aa565b0151613ef657613a816127f833613634565b613a8961376b565b50613a9333613f40565b80600a0390600a8211613362576040908151602090818101904282523360601b858201526034815260608101966001600160401b0392828910848a1117611da45760ff60646006928b8a528551902006160660ff8116918215613ee0575b60ff9250613afe8a612ed8565b89521696608082019188835260c060a08201918783520190888252600b5493600160401b851015611da457600195868601600b55613b3b86613238565b959095611dba57518051918211611da457613b568654613158565b601f8111613eb0575b508890601f8311600114613e48576003959493929160009183613e3d575b505060001982871b1c191690881b1785555b518685015551600284015551910155336000526008835284600020558351613bb681612e87565b600381526203078360ec1b838201523315613def57613bd48761360f565b82865191613be183612e87565b81835285368185013781613bf484613378565b526000825b613dab575b5050505086600052600083528460002033600052835284600020805490838201809211613362575584518781528284820152600033917fc3d58168c5ae7397731d063d5bbf3d657854427343f4c083240f7aacaa2d0f62883392a4333b613ca3575b5050613c6d600654613353565b60065582519485528401528201527fca8ab07e9ed17d119729fc652dd24df9d8430ca862dda4631925b5b4b99da36260603392a2565b8451838180613ce163f23a6e6160e01b95868352336004840152600060248401528c604484015287606484015260a0608484015260a4830190612e2e565b03816000335af160009181613d8c575b50613d63575050613d0061352b565b6308c379a014613d2f575b613d17575b3880613c60565b825162461bcd60e51b81528061055a600482016135ba565b613d37613549565b80613d425750613d0b565b8261055a865192839262461bcd60e51b845260048401526024830190612e2e565b6001600160e01b031916149050613d1057825162461bcd60e51b81528061055a600482016134e2565b613da4919250853d87116105e5576105d68183612ef3565b9038613cf1565b8151811015613dea5780613dc2613de49286613385565b51613dcd8285613385565b51600052600489526106f28b6000209182546134b5565b82613bf9565b613bfe565b845162461bcd60e51b815260048101849052602160248201527f455243313135353a206d696e7420746f20746865207a65726f206164647265736044820152607360f81b6064820152608490fd5b015190503880613b7d565b949392918891601f19821690886000528b6000209160005b8d828210613e9a575050978360039910613e82575b505050811b018555613b8f565b015160001983891b60f8161c19169055388080613e75565b838b015185558d96909401939283019201613e60565b613eda90876000528a600020601f850160051c8101918c8610611d9a57601f0160051c0190613a01565b38613b5f565b905060ff821461336257600160ff920190613af1565b60405162461bcd60e51b8152602060048201526015602482015274506c6179657220697320696e206120626174746c6560581b6044820152606490fd5b9190820391821161336257565b600a9060405160208101914483524260408301526bffffffffffffffffffffffff199060601b16606082015260548152613f7981612ed8565b519020068015613f865790565b50600590565b929190611dba578051926003808510156119815760ff1982541660ff80961617825560209081840151906001918285015560029081850160408701518051906001600160401b038211611da4578190613fe58454613158565b601f811161412c575b508790601f83116001146140ca576000926140bf575b505060001982851b1c191690851b1790555b606086015160005b8381106140a35750505090608085015191600093845b828110614073575050505050600582015560a09091015160069190910180546001600160a01b0319166001600160a01b03929092169190911790559050565b909192826140978697848d85995116919060ff809160031b9316831b921b19161790565b96019493929101614034565b81516001600160a01b031687820184015590850190840161401e565b015190503880614004565b90879350601f1983169185600052896000209260005b8b82821061411657505084116140fe575b505050811b019055614016565b015160001983871b60f8161c191690553880806140f1565b8385015186558b979095019493840193016140e0565b614156908560005289600020601f850160051c8101918b8610611d9a57601f0160051c0190613a01565b38613fee565b9061416682613848565b1561418a576128d7610bde60206131d0948160405193828580945193849201612e0b565b60405162461bcd60e51b815260206004820152601460248201527310985d1d1b1948191bd95cdb89dd08195e1a5cdd60621b6044820152606490fd5b6141ce613879565b5081516003811015611981576002146142ed576002825260018060a01b038091168060a08401527fae6e5eafb6cd1cb4b139e7a0b9140aa182ee7d50e99f50d660156f79212acbc0604084019261422685855161415c565b806060860181815151166000526007602052600a60026142ac6040600020548560208651015116600052604060002054908484614289600461426785613257565b50019360ff19948581541690556019600361428183613257565b500155613257565b500155600461429783613257565b50019081541690556019600361428183613257565b50015551805182168581036142e457506020015116935b51936142de6040519283926020845216956020830190612e2e565b0390a390565b915050936142c3565b60405162461bcd60e51b815260206004820152601460248201527310985d1d1b1948185b1c9958591e48195b99195960621b6044820152606490fd5b80156143eb5780816000925b6143d7575061434382612f14565b916143516040519384612ef3565b80835281601f1961436183612f14565b01916020923684870137925b6143775750505090565b60001983019283116133625782600a80830492818402918483041484151715613362576143a760ff928392613f33565b166030019081116133625785518210156131425760f81b6001600160f81b03191660001a9085018301538061436d565b916143e3600a91613353565b920480614335565b506040516143f881612e87565b60018152600360fc1b60208201529056fea2646970667358221220f194eab5b3a87ac1b519112a78f4014224f30c7a25f66067d7bdd4878f80804964736f6c63430008130033405787fa12a823e0f2b7631cc41b3ba8828b3321ca811111fa75cd3aa3bb5ace",
    "linkReferences": {},
    "deployedLinkReferences": {}
}